:100000000C942A000C9438030C945F030C94860320
:100010000C9447000C9447000C9447000C94470044
:100020000C9447000C9447000C9447000C94470034
:100030000C9447000C9447000C9447000C94470024
:100040000C9421020C9447000C9447000C94470038
:100050000C94470011241FBECFE5D8E0DEBFCDBF12
:1000600010E0A0E6B0E0EEE3FBE002C005900D92E8
:10007000A036B107D9F720E0A0E6B0E001C01D929C
:10008000AB36B207E1F70E9453000C949D050C9427
:10009000000084B195B1909362008093610081E08B
:1000A00080936000089567E082E00E94280360EF7B
:1000B00080E00E9428036AE081E00E9428030E94F9
:1000C00012010E9409020E94AD0380E00E94FC011F
:1000D00089E490E00E941C0260E070E0CB010E9485
:1000E0004B01609161007091620080E090E00E949D
:1000F000570420E030E040EA50E40E940E0520E082
:1001000030EC4FE754E40E94B6036B017C0160E0E1
:1001100080E00E94D601C701B6010E9428040E9417
:100120004B01809160008130E1F61092600020E088
:1001300030E040E250E4C701B6010E94090588237F
:100140002CF060E082E00E94DE01CBCF20E030E0C6
:1001500040E250E4C701B6010E94B10388230CF6C7
:1001600060E082E00E94ED01BCCF0F931F93CF931C
:10017000DF9300D000D0CDB7DEB7082F84E08983AD
:1001800085E08A8386E08B8387E08C8310E014C04F
:10019000402F50E0012E02C0559547950A94E2F792
:1001A0004170E1E0F0E0EC0FFD1FE10FF11D608117
:1001B00080E00E94B8021F5F143050F30F900F9040
:1001C0000F900F90DF91CF911F910F91089541E013
:1001D00063E081E00E94B8028FE39FE10197F1F7AD
:1001E00000C0000040E063E081E00E94B802089592
:1001F000CF93C82F40E061E081E00E94B80240E068
:1002000060E081E00E94B8028C2F82958F700E947E
:10021000B5000E94E7008C2F0E94B5000E94E70005
:10022000CF9108952FEF83EF91E0215080409040CF
:10023000E1F700C0000082E00E94B5000E94E700E4
:1002400082E00E94B5000E94E70088E00E94B500AD
:100250000E94E7008CE00E94F80081E00E94F80014
:100260000895CF93C82F41E061E081E00E94B80279
:1002700040E060E081E00E94B8028C2F82958F7090
:100280000E94B5000E94E7008C2F0E94B5000E94DA
:10029000E700CF9108956F927F928F929F92AF92D5
:1002A000BF92CF92DF92EF92FF920F931F93CF9363
:1002B000DF93CDB7DEB7962E872E782E692ECDB67A
:1002C000DEB6262F372F482F592FA12C09C0CA017F
:1002D000B9012AE030E040E050E00E947B05A394A1
:1002E000211531054105510591F7EA2CF12CC70183
:1002F000880F991F880F991F2DB73EB7281B390B00
:100300000FB6F8943EBF0FBE2DBF0DB71EB70F5FDF
:100310001F4FB12C1BC0692D782D872D962D2AE0FB
:1003200030E040E050E00E947B05EB2DF0E0EE0F66
:10033000FF1FEE0FFF1FE00FF11F608371838283A9
:100340009383922E832E742E652EB394BA1418F3D1
:10035000A11011C014C0F701EB19F1093197EE0F8C
:10036000FF1FEE0FFF1FE00FF11F8081805D0E94D5
:100370003101B39401C0B12CBA1468F303C080E317
:100380000E9431010FB6F894DEBE0FBECDBEDF91E4
:10039000CF911F910F91FF90EF90DF90CF90BF9082
:1003A000AF909F908F907F906F90089590E4699F99
:1003B000800D112480680E94F8000895CF93DF9388
:1003C000C82FD62F41E00E94480241E06D2F8C2FAC
:1003D0000E94B802DF91CF910895CF93DF93C82F89
:1003E000D62F41E00E94480240E06D2F8C2F0E94E2
:1003F000B802DF91CF91089597B1907E97B997B1E8
:10040000892B87B986B1806486B986B1806286B946
:10041000089587B1806487B987B18F7787B986B12E
:10042000887F86B986B1876086B986B1886086B9CB
:1004300086B1806886B908959093640080936300C4
:1004400008951F920F920FB60F9211242F933F938E
:100450004F935F936F937F938F939F93AF93BF93CC
:10046000EF93FF93E0916300F09164000995FF9191
:10047000EF91BF91AF919F918F917F916F915F911C
:100480004F913F912F910F900FBE0F901F90189595
:100490004130A1F5813089F028F08230C9F08330F5
:1004A00011F108952AB381E090E002C0880F991FEE
:1004B0006A95E2F7822B8ABB089527B381E090E02A
:1004C00002C0880F991F6A95E2F7822B87BB0895B7
:1004D00024B381E090E002C0880F991F6A95E2F78B
:1004E000822B84BB089521B381E090E002C0880F85
:1004F000991F6A95E2F7822B81BB0895411137C09D
:10050000813091F028F08230D9F0833029F10895BC
:100510002AB381E090E002C0880F991F6A95E2F744
:10052000809582238ABB089527B381E090E002C0C2
:10053000880F991F6A95E2F78095822387BB0895FB
:1005400024B381E090E002C0880F991F6A95E2F71A
:100550008095822384BB089521B381E090E002C09E
:10056000880F991F6A95E2F78095822381BB0895D1
:100570004130A1F5813089F028F08230C9F0833014
:1005800011F108952BB381E090E002C0880F991F0C
:100590006A95E2F7822B8BBB089528B381E090E047
:1005A00002C0880F991F6A95E2F7822B88BB0895D5
:1005B00025B381E090E002C0880F991F6A95E2F7A9
:1005C000822B85BB089522B381E090E002C0880FA2
:1005D000991F6A95E2F7822B82BB0895411137C0BB
:1005E000813091F028F08230D9F0833029F10895DC
:1005F0002BB381E090E002C0880F991F6A95E2F763
:10060000809582238BBB089528B381E090E002C0DF
:10061000880F991F6A95E2F78095822388BB089519
:1006200025B381E090E002C0880F991F6A95E2F738
:100630008095822385BB089522B381E090E002C0BB
:10064000880F991F6A95E2F78095822382BB0895EF
:10065000813041F028F0823039F0833039F008954C
:100660006ABB089567BB089564BB089561BB089594
:100670001F920F920FB60F9211242F933F934F9317
:100680005F936F937F938F939F93AF93BF93EF93FA
:10069000FF93E0916500F09166000995FF91EF915D
:1006A000BF91AF919F918F917F916F915F914F918A
:1006B0003F912F910F900FBE0F901F9018951F9292
:1006C0000F920FB60F9211242F933F934F935F9386
:1006D0006F937F938F939F93AF93BF93EF93FF930A
:1006E000E0916700F09168000995FF91EF91BF914B
:1006F000AF919F918F917F916F915F914F913F91BA
:100700002F910F900FBE0F901F9018951F920F9270
:100710000FB60F9211242F933F934F935F936F93D4
:100720007F938F939F93AF93BF93EF93FF93E0914A
:100730006900F0916A000995FF91EF91BF91AF9127
:100740009F918F917F916F915F914F913F912F91E9
:100750000F900FBE0F901F9018958FB780688FBFB6
:1007600008950E94940408F481E008950E94CA0349
:100770000C94CF040E94C80458F00E94C10440F0B9
:1007800029F45F3F29F00C94B80451110C9403052F
:100790000C94BE040E94E00468F39923B1F355233E
:1007A00091F3951B550BBB27AA2762177307840784
:1007B00038F09F5F5F4F220F331F441FAA1FA9F31A
:1007C00035D00E2E3AF0E0E832D091505040E69508
:1007D000001CCAF72BD0FE2F29D0660F771F881F69
:1007E000BB1F261737074807AB07B0E809F0BB0B5C
:1007F000802DBF01FF2793585F4F3AF09E3F510570
:1008000078F00C94B8040C9403055F3FE4F3983E31
:10081000D4F3869577956795B795F7959F5FC9F758
:10082000880F911D9695879597F90895E1E0660FD9
:10083000771F881FBB1F621773078407BA0720F052
:10084000621B730B840BBA0BEE1F88F7E0950895BB
:100850000E94E80488F09F5798F0B92F9927B75164
:10086000B0F0E1F0660F771F881F991F1AF0BA9554
:10087000C9F714C0B13091F00E940205B1E00895AB
:100880000C940205672F782F8827B85F39F0B93F9D
:10089000CCF3869577956795B395D9F73EF4909507
:1008A0008095709561957F4F8F4F9F4F0895E89485
:1008B00009C097FB3EF490958095709561957F4FA8
:1008C0008F4F9F4F9923A9F0F92F96E9BB27939556
:1008D000F695879577956795B795F111F8CFFAF466
:1008E000BB0F11F460FF1BC06F5F7F4F8F4F9F4F97
:1008F00016C0882311F096E911C0772321F09EE8F5
:10090000872F762F05C0662371F096E8862F70E05A
:1009100060E02AF09A95660F771F881FDAF7880F34
:100920009695879597F90895990F0008550FAA0B8A
:10093000E0E8FEEF16161706E807F907C0F01216F2
:100940001306E407F50798F0621B730B840B950BF5
:1009500039F40A2661F0232B242B252B21F408954A
:100960000A2609F4A140A6958FEF811D811D0895E7
:1009700097F99F6780E870E060E008959FEF80EC52
:10098000089500240A9416161706180609060895F5
:1009900000240A9412161306140605060895092E5B
:1009A0000394000C11F4882352F0BB0F40F4BF2BCA
:1009B00011F460FF04C06F5F7F4F8F4F9F4F08950A
:1009C00057FD9058440F551F59F05F3F71F0479500
:1009D000880F97FB991F61F09F3F79F087950895E5
:1009E000121613061406551FF2CF4695F1DF08C004
:1009F000161617061806991FF1CF86957105610521
:100A000008940895E894BB2766277727CB0197F9C8
:100A100008950E94940408F48FEF08950E94210520
:100A20000C94CF040E94C10438F00E94C80420F046
:100A3000952311F00C94B8040C94BE0411240C946A
:100A400003050E94E00470F3959FC1F3950F50E0F9
:100A5000551F629FF001729FBB27F00DB11D639F70
:100A6000AA27F00DB11DAA1F649F6627B00DA11D16
:100A7000661F829F2227B00DA11D621F739FB00DBC
:100A8000A11D621F839FA00D611D221F749F33272C
:100A9000A00D611D231F849F600D211D822F762FC5
:100AA0006A2F11249F5750409AF0F1F088234AF0A2
:100AB000EE0FFF1FBB1F661F771F881F915050400E
:100AC000A9F79E3F510580F00C94B8040C940305DF
:100AD0005F3FE4F3983ED4F3869577956795B79595
:100AE000F795E7959F5FC1F7FE2B880F911D9695AF
:100AF000879597F90895A1E21A2EAA1BBB1BFD0149
:100B00000DC0AA1FBB1FEE1FFF1FA217B307E407EC
:100B1000F50720F0A21BB30BE40BF50B661F771F44
:100B2000881F991F1A9469F7609570958095909524
:0E0B30009B01AC01BD01CF010895F894FFCFE9
:00000001FF
