S00E0000454D5F3538352E7372656383
S11300000C942A000C9480050C94A7050C94CE053E
S11300100C9447000C9447000C9447000C94470040
S11300200C9447000C9447000C9447000C94470030
S11300300C9447000C9447000C9447000C94470020
S11300400C943B040C9447000C9447000C94470018
S11300500C94470011241FBECFE5D8E0DEBFCDBF0E
S113006010E0A0E6B0E0EEECFFE002C005900D92D7
S1130070A43AB107D9F720E0A4EAB0E001C01D9288
S1130080A53BB207E1F70E9410010C94E5070C941C
S11300900000E091AA00F0E084B195B1EE0FFF1FDB
S11300A0EC55FF4F918380838091AA008F5F8093EA
S11300B0AA009091AA008BEA989F812D112486951D
S11300C0282F220F820F981B9093AA00E091AA0078
S11300D0F0E0E05AFF4F80810E94160408950E94C8
S11300E03F028233E1F30895BC0190E00DC0292F53
S11300F030E0FB01E20FF31F4081F901ED59FF4F9E
S11301002081421305C09F5F943088F381E00895F5
S113011080E008950F931F93CF93DF9300D000D016
S1130120CDB7DEB719821A821B821C8200E06CC034
S113013081E00E94FF0280E790E00E94520310E0F9
S113014012C00E946F008093AC00E1E0F0E0EC0F7D
S1130150FD1FE10FF11D8083682F70E080E090E0C7
S11301600E9465031F5F143060F3CE0101960E9464
S113017074008130B1F48093AB000E94FF0260E010
S113018084E00E94F0038BE790E00E9452032FEF7B
S113019087EA91E6215080409040E1F700C00000DA
S11301A036C00230D0F481E00E94FF0260E080E0BB
S11301B00E94F00383E890E00E94520361E080E033
S11301C00E94F00383E990E00E9452030E946F00B2
S11301D08093AC008130F1F716C01092AB0081E03F
S11301E00E94FF0260E086E00E94F0038BE990E049
S11301F00E9452032FEF87EA91E6215080409040FD
S1130200E1F700C000000F5F033008F491CF0F90B6
S11302100F900F900F90DF91CF911F910F91089540
S11302204F925F926F927F928F929F92AF92BF9202
S1130230CF92DF92EF92FF92CF93DF930E9402025C
S113024060EF80E00E9470056AE081E00E94700522
S11302500E9419030E9423040E94F505E091AA005C
S1130260F0E0E05AFF4F80810E94160489E490E098
S11302700E94360441E067E081E00E94620441E0AC
S113028066E081E00E94620441E065E081E00E9452
S113029062040E948A008091AB00813009F0A1C001
S11302A00E94FF02C4EAD0E06A817B8180E090E092
S11302B00E949F0620E030E04AEF53E40E94560774
S11302C020E030EC4FE754E40E94FE056B017C0112
S11302D06C817D8180E090E00E949F0620E030E008
S11302E040EA50E40E94560720E030EC4FE754E423
S11302F00E94FE054B015C016881798180E090E0F9
S11303000E949F0620E030E040EA50E40E94560735
S113031020E030EC4FE754E40E94FE052B013C0141
S113032060E080E00E94F003C701B6010E947006FD
S11303300E94650381EA90E00E94520320E030E0CD
S113034040E250E4C501B4010E945107882334F00F
S113035041E067E081E00E94D2040FC020E030E079
S113036040E250E4C501B4010E94F90588232CF44D
S113037040E067E081E00E94D20420E030E04CE0FD
S113038052E4C701B6010E94510718162CF466E026
S113039081E00E94F80304C066E081E00E94070443
S11303A020E030E040E250E4C301B2010E94510772
S11303B0882334F041E065E081E00E94D20472CFEA
S11303C020E030E040E250E4C301B2010E94F905AC
S11303D088230CF067CF40E065E081E00E94D204FE
S11303E061CF80E090E0DF91CF91FF90EF90DF90BC
S11303F0CF90BF90AF909F908F907F906F905F90C1
S11304004F90089540E060E082E00E94620440E082
S113041061E082E00E94620440E062E082E00E94C7
S1130420620441E065E083E00E94620441E066E02A
S113043083E00E94620441E067E083E00E9462047A
S113044041E060E082E00E94D20441E061E082E0A9
S11304500E94D20441E062E082E00E94D20441E0C2
S113046065E083E00E94D20441E066E083E00E94FC
S1130470D20441E067E083E00E94D2040895AF9281
S1130480BF92CF92DF92EF92FF920F931F93CF937D
S1130490DF93CDB7DEB72F970FB6F894DEBF0FBE4C
S11304A0CDBF89E0E7E6F0E0DE01119601900D9200
S11304B08A95E1F71A8681E08B8782E08C8785E054
S11304C08D8786E08E8787E08F87B12C3FC0CB2C49
S11304D0D12CEDE0F0E0EC0FFD1FEC0DFD1DA08034
S11304E040E06A2D83E00E94D20410E027C0E12E90
S11304F0F12CEAE0F0E0EC0FFD1FEE0DFF1D008192
S1130500602F82E00E944205811117C0C701880F45
S1130510991FE80EF91E81E090E08C0F9D1FE80EF4
S1130520F91EF701EC0DFD1D1081602F82E00E9481
S113053042058823D1F3812F0EC01F5F1330B8F218
S113054041E06A2D83E00E94D204B39492E09B15AB
S113055008F0BDCF82E32F960FB6F894DEBF0FBE2E
S1130560CDBFDF91CF911F910F91FF90EF90DF905E
S1130570CF90BF90AF9008950F931F93CF93DF93C5
S113058000D000D0CDB7DEB7082F84E0898385E0A2
S11305908A8386E08B8387E08C8310E014C0402F2D
S11305A050E0012E02C0559547950A94E2F7417038
S11305B0E1E0F0E0EC0FFD1FE10FF11D608180E050
S11305C00E94D2041F5F143050F30F900F900F90CD
S11305D00F90DF91CF911F910F91089541E063E057
S11305E081E00E94D2048FE39FE10197F1F700C0FC
S11305F0000040E063E081E00E94D2040895CF93BC
S1130600C82F40E061E081E00E94D20440E060E055
S113061081E00E94D2048C2F82958F700E94BC02CC
S11306200E94EE028C2F0E94BC020E94EE02CF9127
S113063008952FEF83EF91E0215080409040E1F73F
S113064000C0000082E00E94BC020E94EE0282E030
S11306500E94BC020E94EE0288E00E94BC020E943A
S1130660EE028CE00E94FF0281E00E94FF020895E6
S1130670CF93C82F41E061E081E00E94D20440E0C2
S113068060E081E00E94D2048C2F82958F700E94DA
S1130690BC020E94EE028C2F0E94BC020E94EE0259
S11306A0CF9108950F931F93CF938C01C0E003C0A3
S11306B00E943803CF5FF801EC0FF11D8081811196
S11306C0F7CFCF911F910F9108956F927F928F92E0
S11306D09F92AF92BF92CF92DF92EF92FF920F93CD
S11306E01F93CF93DF93CDB7DEB7962E872E782E48
S11306F0692ECDB6DEB6262F372F482F592FA12CC1
S113070009C0CA01B9012AE030E040E050E00E948B
S1130710C307A394211531054105510591F7EA2C2E
S1130720F12CC701880F991F880F991F2DB73EB769
S1130730281B390B0FB6F8943EBF0FBE2DBF0DB763
S11307401EB70F5F1F4FB12C1BC0692D782D872D4D
S1130750962D2AE030E040E050E00E94C307EB2DE4
S1130760F0E0EE0FFF1FEE0FFF1FE00FF11F60839D
S1130770718382839383922E832E742E652EB39479
S1130780BA1418F3A11011C014C0F701EB19F10940
S11307903197EE0FFF1FEE0FFF1FE00FF11F808157
S11307A0805D0E943803B39401C0B12CBA1468F37D
S11307B003C080E30E9438030FB6F894DEBE0FBE78
S11307C0CDBEDF91CF911F910F91FF90EF90DF90FD
S11307D0CF90BF90AF909F908F907F906F9008952F
S11307E090E4699F800D112480680E94FF0208959F
S11307F0CF93DF93C82FD62F41E00E94620441E0DB
S11308006D2F8C2F0E94D204DF91CF910895CF9346
S1130810DF93C82FD62F41E00E94620440E06D2F81
S11308208C2F0E94D204DF91CF91089597B1907ECE
S113083097B997B1892B87B986B1806486B986B197
S1130840806286B9089587B1806487B987B18F774C
S113085087B986B1887F86B986B1876086B986B143
S1130860886086B986B1806886B908959093AE0091
S11308708093AD0008951F920F920FB60F9211242A
S11308802F933F934F935F936F937F938F939F9394
S1130890AF93BF93EF93FF93E091AD00F091AE005F
S11308A00995FF91EF91BF91AF919F918F917F91A6
S11308B06F915F914F913F912F910F900FBE0F90C9
S11308C01F9018954130A1F5813089F028F08230CD
S11308D0C9F0833011F108952AB381E090E002C099
S11308E0880F991F6A95E2F7822B8ABB089527B374
S11308F081E090E002C0880F991F6A95E2F7822B8D
S113090087BB089524B381E090E002C0880F991F4B
S11309106A95E2F7822B84BB089521B381E090E0CD
S113092002C0880F991F6A95E2F7822B81BB089554
S1130930411137C0813091F028F08230D9F08330F2
S113094029F108952AB381E090E002C0880F991F2D
S11309506A95E2F7809582238ABB089527B381E0E4
S113096090E002C0880F991F6A95E2F78095822370
S113097087BB089524B381E090E002C0880F991FDB
S11309806A95E2F78095822384BB089521B381E0C0
S113099090E002C0880F991F6A95E2F78095822340
S11309A081BB08954130A1F5813089F028F082306F
S11309B0C9F0833011F108952BB381E090E002C0B7
S11309C0880F991F6A95E2F7822B8BBB089528B391
S11309D081E090E002C0880F991F6A95E2F7822BAC
S11309E088BB089525B381E090E002C0880F991F69
S11309F06A95E2F7822B85BB089522B381E090E0EB
S1130A0002C0880F991F6A95E2F7822B82BB089572
S1130A10411137C0813091F028F08230D9F0833011
S1130A2029F108952BB381E090E002C0880F991F4B
S1130A306A95E2F7809582238BBB089528B381E001
S1130A4090E002C0880F991F6A95E2F7809582238F
S1130A5088BB089525B381E090E002C0880F991FF8
S1130A606A95E2F78095822385BB089522B381E0DD
S1130A7090E002C0880F991F6A95E2F7809582235F
S1130A8082BB0895813079F028F08230A9F0833058
S1130A90E1F024C089B390E002C0959587956A95EA
S1130AA0E2F78170089586B390E002C0959587952A
S1130AB06A95E2F78170089583B390E002C095953A
S1130AC087956A95E2F78170089580B390E002C03B
S1130AD0959587956A95E2F7817008958FEF08954B
S1130AE0813041F028F0823039F0833039F00895B4
S1130AF06ABB089567BB089564BB089561BB0895FC
S1130B001F920F920FB60F9211242F933F934F937E
S1130B105F936F937F938F939F93AF93BF93EF9361
S1130B20FF93E091AF00F091B0000995FF91EF9130
S1130B30BF91AF919F918F917F916F915F914F91F1
S1130B403F912F910F900FBE0F901F9018951F92F9
S1130B500F920FB60F9211242F933F934F935F93ED
S1130B606F937F938F939F93AF93BF93EF93FF9371
S1130B70E091B100F091B2000995FF91EF91BF911E
S1130B80AF919F918F917F916F915F914F913F9121
S1130B902F910F900FBE0F901F9018951F920F92D8
S1130BA00FB60F9211242F933F934F935F936F933C
S1130BB07F938F939F93AF93BF93EF93FF93E091B2
S1130BC0B300F091B4000995FF91EF91BF91AF91FB
S1130BD09F918F917F916F915F914F913F912F9151
S1130BE00F900FBE0F901F9018958FB780688FBF1E
S1130BF008950E94DC0608F481E008950E9412061C
S1130C000C9417070E94100758F00E94090740F03F
S1130C1029F45F3F29F00C94000751110C944B0701
S1130C200C9406070E94280768F39923B1F355230F
S1130C3091F3951B550BBB27AA27621773078407EB
S1130C4038F09F5F5F4F220F331F441FAA1FA9F381
S1130C5035D00E2E3AF0E0E832D091505040E6956F
S1130C60001CCAF72BD0FE2F29D0660F771F881FD0
S1130C70BB1F261737074807AB07B0E809F0BB0BC3
S1130C80802DBF01FF2793585F4F3AF09E3F5105D7
S1130C9078F00C9400070C944B075F3FE4F3983E04
S1130CA0D4F3869577956795B795F7959F5FC9F7C0
S1130CB0880F911D9695879597F90895E1E0660F41
S1130CC0771F881FBB1F621773078407BA0720F0BA
S1130CD0621B730B840BBA0BEE1F88F7E095089523
S1130CE00E94300788F09F5798F0B92F9927B75181
S1130CF0B0F0E1F0660F771F881F991F1AF0BA95BC
S1130D00C9F714C0B13091F00E944A07B1E00895C8
S1130D100C944A07672F782F8827B85F39F0B93FBA
S1130D20CCF3869577956795B395D9F73EF490956E
S1130D308095709561957F4F8F4F9F4F0895E894EC
S1130D4009C097FB3EF490958095709561957F4F0F
S1130D508F4F9F4F9923A9F0F92F96E9BB279395BD
S1130D60F695879577956795B795F111F8CFFAF4CD
S1130D70BB0F11F460FF1BC06F5F7F4F8F4F9F4FFE
S1130D8016C0882311F096E911C0772321F09EE85C
S1130D90872F762F05C0662371F096E8862F70E0C2
S1130DA060E02AF09A95660F771F881FDAF7880F9C
S1130DB09695879597F90895990F0008550FAA0BF2
S1130DC0E0E8FEEF16161706E807F907C0F012165A
S1130DD01306E407F50798F0621B730B840B950B5D
S1130DE039F40A2661F0232B242B252B21F40895B2
S1130DF00A2609F4A140A6958FEF811D811D08954F
S1130E0097F99F6780E870E060E008959FEF80ECB9
S1130E10089500240A94161617061806090608955C
S1130E2000240A9412161306140605060895092EC2
S1130E300394000C11F4882352F0BB0F40F4BF2B31
S1130E4011F460FF04C06F5F7F4F8F4F9F4F089571
S1130E5057FD9058440F551F59F05F3F71F0479567
S1130E60880F97FB991F61F09F3F79F0879508954C
S1130E70121613061406551FF2CF4695F1DF08C06B
S1130E80161617061806991FF1CF86957105610588
S1130E9008940895E894BB2766277727CB0197F930
S1130EA008950E94DC0608F48FEF08950E946907F4
S1130EB00C9417070E94090738F00E94100720F0CD
S1130EC0952311F00C9400070C94060711240C943C
S1130ED04B070E94280770F3959FC1F3950F50E0CC
S1130EE0551F629FF001729FBB27F00DB11D639FD8
S1130EF0AA27F00DB11DAA1F649F6627B00DA11D7E
S1130F00661F829F2227B00DA11D621F739FB00D23
S1130F10A11D621F839FA00D611D221F749F332793
S1130F20A00D611D231F849F600D211D822F762F2C
S1130F306A2F11249F5750409AF0F1F088234AF009
S1130F40EE0FFF1FBB1F661F771F881F9150504075
S1130F50A9F79E3F510580F00C9400070C944B07B1
S1130F605F3FE4F3983ED4F3869577956795B795FC
S1130F70F795E7959F5FC1F7FE2B880F911D969516
S1130F80879597F90895A1E21A2EAA1BBB1BFD01B0
S1130F900DC0AA1FBB1FEE1FFF1FA217B307E40754
S1130FA0F50720F0A21BB30BE40BF50B661F771FAC
S1130FB0881F991F1A9469F760957095809590958C
S1110FC09B01AC01BD01CF010895F894FFCF51
S1130FCE00010201020304010203040506070809D5
S1130FDE50415353574F52443A200057454C434FB8
S1130FEE4D450057524F4E472054525920414741C8
S1130FFE494E005052455353203100434C4F5345F4
S107100E0043000097
S9030000FC
