S00E0000454D5F3538352E7372656383
S11300000C942A000C94AE040C94D5040C94FC04B7
S11300100C9447000C9447000C9447000C94470040
S11300200C9447000C9447000C945D050C94470015
S11300300C9447000C9447000C9447000C94470020
S11300400C9469030C9447000C9447000C944700EB
S11300500C94470011241FBECFE5D8E0DEBFCDBF0E
S113006010E0A0E6B0E0EEE6FBE002C005900D92E1
S1130070A236B107D9F720E0A2E6B0E001C01D9294
S1130080A437B207E1F70E948E010C94B5050C94D5
S113009000001F93CF93DF9310E003C080519E4074
S11300A01F5F80312EE09207C8F7D0E002C0CC97E2
S11300B0DF5F8C339105D8F7C82F8FEF810F89301C
S11300C0E0F460E080E00E94520360E070E0CB0165
S11300D00E94C70260E081E00E945203612F70E039
S11300E080E090E00E94C70260E082E00E94520338
S11300F080E690E00E94B4022FC01A3098F060E0CD
S113010080E00E945203612F70E080E090E00E9442
S1130110C70260E082E00E94520380E690E00E9401
S1130120B4021AC060E080E00E94520360E070E014
S1130130CB010E94C70260E081E00E94520360E0AC
S113014070E0CB010E94C70260E082E00E9452038B
S113015080E690E00E94B4028FEF8D0F8930E0F4C6
S113016060E083E00E94520360E070E0CB010E94F3
S1130170C70260E084E00E9452036D2F70E080E0CB
S113018090E00E94C70260E085E00E94520380E68E
S113019090E00E94B4022FC0DA3098F060E083E06F
S11301A00E9452036D2F70E080E090E00E94C7022D
S11301B060E085E00E94520380E690E00E94B40271
S11301C01AC060E083E00E94520360E070E0CB015B
S11301D00E94C70260E084E00E94520360E070E085
S11301E0CB010E94C70260E085E00E94520380E6D2
S11301F090E00E94B4028FEF8C0F8930A0F460E08D
S113020086E00E94520360E070E0CB010E94C702C6
S113021060E087E00E9452036C2F70E080E090E081
S11302200E94C7021FC0CA3058F060E086E00E94F6
S113023052036C2F70E080E090E00E94C70212C06D
S113024060E086E00E94520360E070E0CB010E940F
S1130250C70260E087E00E94520360E070E0CB01D7
S11302600E94C702DF91CF911F910895809162008F
S113027090916300892B31F4809164009091650022
S11302800E94490040916200509163004F5F5F4FAC
S113029050936300409362009A01369527953695F2
S11302A0279536952795A5ECB0E20E94A605929570
S11302B082958F7089279F70892768EE73E0869FE7
S11302C09001879F300D969F300D112442175307DC
S11302D059F48091640090916500019790936500B2
S11302E0809364000E944900409166005091670029
S11302F088EE93E0489F9001499F300D589F300D40
S1130300112480916200909163002817390729F421
S113031060E081E00E945A03FBCF089540E062E070
S113032083E00E94900340E063E083E00E94900336
S113033040E067E083E00E94900341E062E083E0F4
S11303400E94000441E063E083E00E94000441E075
S113035067E083E00E94000460EF80E00E949E0456
S113036066E081E00E949E040E947B02809164000A
S1130370909165000E94490048C062E083E00E94B9
S1130380700481111BC062E083E00E947004882322
S1130390D1F380916600909167004E969093670028
S11303A08093660080916400909165004E969093CE
S11303B06500809364000E94490027C063E083E0E5
S11303C00E947004811121C063E083E00E947004E4
S11303D08823D1F380916600909167008E31910556
S11303E070F04E979093670080936600809164004C
S11303F0909165004E97909365008093640080917E
S11304006400909165000E94490067E083E00E94C7
S11304107004813009F4B1CF809166009091670037
S1130420892B09F4AACF0E94230581E00E942705A5
S113043061E086E391E00E944E05FFCF0F931F9386
S1130440CF93DF9300D000D0CDB7DEB7082F84E080
S1130450898385E08A8386E08B8387E08C8310E040
S113046014C0402F50E0012E02C0559547950A94C0
S1130470E2F74170E1E0F0E0EC0FFD1FE10FF11D48
S1130480608180E00E9400041F5F143050F30F90DD
S11304900F900F900F90DF91CF911F910F910895BE
S11304A041E062E081E00E9400048FE39FE1019754
S11304B0F1F700C0000040E062E081E00E94000427
S11304C00895CF93C82F40E061E081E00E940004CA
S11304D040E060E081E00E9400048C2F82958F70E0
S11304E00E941E020E9450028C2F0E941E020E9433
S11304F05002CF9108952FEF83EF91E02150804077
S11305009040E1F700C0000082E00E941E020E94B9
S1130510500282E00E941E020E94500288E00E9463
S11305201E020E9450028CE00E94610281E00E943F
S113053061020895CF93C82F41E061E081E00E94F9
S1130540000440E060E081E00E9400048C2F82956A
S11305508F700E941E020E9450028C2F0E941E0265
S11305600E945002CF9108950F931F93CF938C0153
S1130570C0E003C00E949A02CF5FF801EC0FF11DA6
S113058080818111F7CFCF911F910F9108956F92C0
S11305907F928F929F92AF92BF92CF92DF92EF920F
S11305A0FF920F931F93CF93DF93CDB7DEB7962EB1
S11305B0872E782E692ECDB6DEB6262F372F482FFC
S11305C0592FA12C09C0CA01B9012AE030E040E04A
S11305D050E00E948405A39421153105410551057D
S11305E091F7EA2CF12CC701880F991F880F991FE6
S11305F02DB73EB7281B390B0FB6F8943EBF0FBE7C
S11306002DBF0DB71EB70F5F1F4FB12C1BC0692D37
S1130610782D872D962D2AE030E040E050E00E94AE
S11306208405EB2DF0E0EE0FFF1FEE0FFF1FE00F30
S1130630F11F6083718382839383922E832E742EA1
S1130640652EB394BA1418F3A11011C014C0F701A5
S1130650EB19F1093197EE0FFF1FEE0FFF1FE00FAB
S1130660F11F8081805D0E949A02B39401C0B12C75
S1130670BA1468F303C080E30E949A020FB6F89498
S1130680DEBE0FBECDBEDF91CF911F910F91FF90C3
S1130690EF90DF90CF90BF90AF909F908F907F901E
S11306A06F90089590E4699F800D112480680E94E2
S11306B061020895CF93DF93C82FD62F41E00E94A3
S11306C0900341E06D2F8C2F0E940004DF91CF91A5
S11306D008951F920F920FB60F9211242F933F93F8
S11306E04F935F936F937F938F939F93AF93BF9336
S11306F0EF93FF93E0916800F09169000995FF91F1
S1130700EF91BF91AF919F918F917F916F915F9185
S11307104F913F912F910F900FBE0F901F901895FE
S11307204130A1F5813089F028F08230C9F083305E
S113073011F108952AB381E090E002C0880F991F57
S11307406A95E2F7822B8ABB089527B381E090E093
S113075002C0880F991F6A95E2F7822B87BB089520
S113076024B381E090E002C0880F991F6A95E2F7F4
S1130770822B84BB089521B381E090E002C0880FEE
S1130780991F6A95E2F7822B81BB0895411137C006
S1130790813091F028F08230D9F0833029F1089526
S11307A02AB381E090E002C0880F991F6A95E2F7AE
S11307B0809582238ABB089527B381E090E002C02C
S11307C0880F991F6A95E2F78095822387BB089565
S11307D024B381E090E002C0880F991F6A95E2F784
S11307E08095822384BB089521B381E090E002C008
S11307F0880F991F6A95E2F78095822381BB08953B
S11308004130A1F5813089F028F08230C9F083307D
S113081011F108952BB381E090E002C0880F991F75
S11308206A95E2F7822B8BBB089528B381E090E0B0
S113083002C0880F991F6A95E2F7822B88BB08953E
S113084025B381E090E002C0880F991F6A95E2F712
S1130850822B85BB089522B381E090E002C0880F0B
S1130860991F6A95E2F7822B82BB0895411137C024
S1130870813091F028F08230D9F0833029F1089545
S11308802BB381E090E002C0880F991F6A95E2F7CC
S1130890809582238BBB089528B381E090E002C049
S11308A0880F991F6A95E2F78095822388BB089583
S11308B025B381E090E002C0880F991F6A95E2F7A2
S11308C08095822385BB089522B381E090E002C025
S11308D0880F991F6A95E2F78095822382BB089559
S11308E0813079F028F08230A9F08330E1F024C01F
S11308F089B390E002C0959587956A95E2F7817077
S1130900089586B390E002C0959587956A95E2F7BD
S11309108170089583B390E002C0959587956A9598
S1130920E2F78170089580B390E002C095958795B1
S11309306A95E2F7817008958FEF0895813041F050
S113094028F0823039F0833039F008956ABB089575
S113095067BB089564BB089561BB08951F920F920D
S11309600FB60F9211242F933F934F935F936F937E
S11309707F938F939F93AF93BF93EF93FF93E091F4
S11309806A00F0916B000995FF91EF91BF91AF91CF
S11309909F918F917F916F915F914F913F912F9193
S11309A00F900FBE0F901F9018951F920F920FB6C5
S11309B00F9211242F933F934F935F936F937F93E1
S11309C08F939F93AF93BF93EF93FF93E0916C004A
S11309D0F0916D000995FF91EF91BF91AF919F91B7
S11309E08F917F916F915F914F913F912F910F90D4
S11309F00FBE0F901F9018951F920F920FB60F9273
S1130A0011242F933F934F935F936F937F938F930F
S1130A109F93AF93BF93EF93FF93E0916E00F09198
S1130A206F000995FF91EF91BF91AF919F918F91C5
S1130A307F916F915F914F913F912F910F900FBED6
S1130A400F901F9018958FB780688FBF08958823E3
S1130A5019F0813089F0089583B7877F83BF83B706
S1130A608F7B83BF83B7887F83BF83B7836083BF54
S1130A7089B7816089BF089583B7886083BF83B7CE
S1130A808F7B83BF83B7887F83BF83B7836083BF34
S1130A9089B7826089BF8AEF8CBF0895662319F0F5
S1130AA0613031F00895909371008093700008953F
S1130AB0909373008093720008951F920F920FB663
S1130AC00F9211242F933F934F935F936F937F93D0
S1130AD08F939F93AF93BF93EF93FF93E091720033
S1130AE0F09173000995FF91EF91BF91AF919F91A0
S1130AF08F917F916F915F914F913F912F910F90C3
S1130B000FBE0F901F901895A1E21A2EAA1BBB1BB3
S1130B10FD010DC0AA1FBB1FEE1FFF1FA217B307C5
S1130B20E407F50720F0A21BB30BE40BF50B661FDB
S1130B30771F881F991F1A9469F76095709580959F
S1130B4090959B01AC01BD01CF010895A29FB00116
S1130B50B39FC001A39F700D811D1124911DB29FED
S1110B60700D811D1124911D0895F894FFCF8E
S1050B6E3A0047
S9030000FC
