:100000000C942A000C9470010C9497010C94BE017E
:100010000C9447000C9447000C9438020C94470051
:100020000C9447000C9447000C9411020C94470068
:100030000C9447000C9447000C9447000C94470024
:100040000C9469000C9447000C9447000C944700F2
:100050000C94470011241FBECFE5D8E0DEBFCDBF12
:1000600010E0A0E6B0E0E0EEF4E002C005900D92F2
:10007000A036B107D9F720E0A0E6B0E001C01D929C
:10008000AE36B207E1F70E9449000C946E020C9460
:1000900000000E945F020E94E5010E946A02282F70
:1000A0009BEA899F912D1124892F829586958770CF
:1000B00030E3839F20191124822F9FEF20E732E045
:1000C000915020403040E1F700C000000E940D0236
:1000D000E4CF1F920F920FB60F9211242F933F93EC
:1000E0004F935F936F937F938F939F93AF93BF9340
:1000F000EF93FF93E0916000F09161000995FF910B
:10010000EF91BF91AF919F918F917F916F915F918F
:100110004F913F912F910F900FBE0F901F90189508
:100120004130A1F5813089F028F08230C9F0833068
:1001300011F108952AB381E090E002C0880F991F61
:100140006A95E2F7822B8ABB089527B381E090E09D
:1001500002C0880F991F6A95E2F7822B87BB08952A
:1001600024B381E090E002C0880F991F6A95E2F7FE
:10017000822B84BB089521B381E090E002C0880FF8
:10018000991F6A95E2F7822B81BB0895411137C010
:10019000813091F028F08230D9F0833029F1089530
:1001A0002AB381E090E002C0880F991F6A95E2F7B8
:1001B000809582238ABB089527B381E090E002C036
:1001C000880F991F6A95E2F78095822387BB08956F
:1001D00024B381E090E002C0880F991F6A95E2F78E
:1001E0008095822384BB089521B381E090E002C012
:1001F000880F991F6A95E2F78095822381BB089545
:100200004130A1F5813089F028F08230C9F0833087
:1002100011F108952BB381E090E002C0880F991F7F
:100220006A95E2F7822B8BBB089528B381E090E0BA
:1002300002C0880F991F6A95E2F7822B88BB089548
:1002400025B381E090E002C0880F991F6A95E2F71C
:10025000822B85BB089522B381E090E002C0880F15
:10026000991F6A95E2F7822B82BB0895411137C02E
:10027000813091F028F08230D9F0833029F108954F
:100280002BB381E090E002C0880F991F6A95E2F7D6
:10029000809582238BBB089528B381E090E002C053
:1002A000880F991F6A95E2F78095822388BB08958D
:1002B00025B381E090E002C0880F991F6A95E2F7AC
:1002C0008095822385BB089522B381E090E002C02F
:1002D000880F991F6A95E2F78095822382BB089563
:1002E0001F920F920FB60F9211242F933F934F93AB
:1002F0005F936F937F938F939F93AF93BF93EF938E
:10030000FF93E0916200F09163000995FF91EF91F6
:10031000BF91AF919F918F917F916F915F914F911D
:100320003F912F910F900FBE0F901F9018951F9225
:100330000F920FB60F9211242F933F934F935F9319
:100340006F937F938F939F93AF93BF93EF93FF939D
:10035000E0916400F09165000995FF91EF91BF91E4
:10036000AF919F918F917F916F915F914F913F914D
:100370002F910F900FBE0F901F9018951F920F9204
:100380000FB60F9211242F933F934F935F936F9368
:100390007F938F939F93AF93BF93EF93FF93E091DE
:1003A0006600F09167000995FF91EF91BF91AF91C1
:1003B0009F918F917F916F915F914F913F912F917D
:1003C0000F900FBE0F901F90189541E065E081E0FF
:1003D0000E94900041E067E081E00E94900041E0CF
:1003E00064E081E00E94900040E064E081E00E94CF
:1003F000000141E063E081E00E94900040E063E0A2
:1004000081E00E9400018DB180618DB98DB1836062
:100410008DB98DB180648DB908958FB9779BFECF6A
:1004200008951F920F920FB60F9211242F933F93AE
:100430004F935F936F937F938F939F93AF93BF93EC
:10044000EF93FF93E0916A00F0916B000995FF91A3
:10045000EF91BF91AF919F918F917F916F915F913C
:100460004F913F912F910F900FBE0F901F901895B5
:100470001F920F920FB60F9211242F933F934F9319
:100480005F936F937F938F939F93AF93BF93EF93FC
:10049000FF93E0916C00F0916D000995FF91EF9151
:1004A000BF91AF919F918F917F916F915F914F918C
:1004B0003F912F910F900FBE0F901F90189587E6D8
:1004C00089B986E880BD8AB188608AB98AB18061BD
:1004D0008AB908955F9BFECF8CB10895F894FFCF41
:00000001FF
