:100000000C942A000C94C9010C94F0010C94170272
:100010000C9447000C9447000C9465020C94470024
:100020000C9447000C9447000C943E020C9447003B
:100030000C9447000C9447000C9447000C94470024
:100040000C94C2000C9447000C9447000C94470099
:100050000C94470011241FBECFE5D8E0DEBFCDBF12
:1000600010E0A0E6B0E0ECE2F6E002C005900D92F0
:10007000A036B107D9F720E0A0E6B0E001C01D929C
:10008000AE36B207E1F70E9449000C9414030C94B9
:10009000000080E00E948C0261E480E090E00E9419
:1000A000610080E090E00E947F00813429F460E0EC
:1000B00083E00E94A400F5CF60E083E00E94B300DB
:1000C000F0CF1F93CF93DF93D82FC62F192F106532
:1000D0000E949F02812F0E94C1028D2F0E94ED027B
:1000E0008C2F0E94ED020E940D038FE19EE4019788
:1000F000F1F700C00000DF91CF911F9108950F9399
:100100001F93CF93DF931F92CDB7DEB7082F1982CD
:10011000192F10650E949F02812F0E94C102802F1B
:100120000E94ED020E94B002812F0E94D702CE01F0
:1001300001960E94FC020E940D0389810F90DF91BD
:10014000CF911F910F910895CF93DF93C82FD62F92
:1001500041E00E94E90041E06D2F8C2F0E9459017F
:10016000DF91CF910895CF93DF93C82FD62F41E031
:100170000E94E90040E06D2F8C2F0E945901DF9111
:10018000CF9108951F920F920FB60F9211242F93C3
:100190003F934F935F936F937F938F939F93AF930F
:1001A000BF93EF93FF93E0916000F0916100099598
:1001B000FF91EF91BF91AF919F918F917F916F913F
:1001C0005F914F913F912F910F900FBE0F901F9015
:1001D00018954130A1F5813089F028F08230C9F0BE
:1001E000833011F108952AB381E090E002C0880FB6
:1001F000991F6A95E2F7822B8ABB089527B381E0A5
:1002000090E002C0880F991F6A95E2F7822B87BBA6
:10021000089524B381E090E002C0880F991F6A9589
:10022000E2F7822B84BB089521B381E090E002C005
:10023000880F991F6A95E2F7822B81BB08954111BF
:1002400037C0813091F028F08230D9F0833029F125
:1002500008952AB381E090E002C0880F991F6A9543
:10026000E2F7809582238ABB089527B381E090E06E
:1002700002C0880F991F6A95E2F78095822387BB99
:10028000089524B381E090E002C0880F991F6A9519
:10029000E2F78095822384BB089521B381E090E04A
:1002A00002C0880F991F6A95E2F78095822381BB6F
:1002B00008954130A1F5813089F028F08230C9F0ED
:1002C000833011F108952BB381E090E002C0880FD4
:1002D000991F6A95E2F7822B8BBB089528B381E0C2
:1002E00090E002C0880F991F6A95E2F7822B88BBC5
:1002F000089525B381E090E002C0880F991F6A95A8
:10030000E2F7822B85BB089522B381E090E002C022
:10031000880F991F6A95E2F7822B82BB08954111DD
:1003200037C0813091F028F08230D9F0833029F144
:1003300008952BB381E090E002C0880F991F6A9561
:10034000E2F7809582238BBB089528B381E090E08B
:1003500002C0880F991F6A95E2F78095822388BBB7
:10036000089525B381E090E002C0880F991F6A9537
:10037000E2F78095822385BB089522B381E090E067
:1003800002C0880F991F6A95E2F78095822382BB8D
:1003900008951F920F920FB60F9211242F933F933F
:1003A0004F935F936F937F938F939F93AF93BF937D
:1003B000EF93FF93E0916200F09163000995FF9144
:1003C000EF91BF91AF919F918F917F916F915F91CD
:1003D0004F913F912F910F900FBE0F901F90189546
:1003E0001F920F920FB60F9211242F933F934F93AA
:1003F0005F936F937F938F939F93AF93BF93EF938D
:10040000FF93E0916400F09165000995FF91EF91F1
:10041000BF91AF919F918F917F916F915F914F911C
:100420003F912F910F900FBE0F901F9018951F9224
:100430000F920FB60F9211242F933F934F935F9318
:100440006F937F938F939F93AF93BF93EF93FF939C
:10045000E0916600F09167000995FF91EF91BF91DF
:10046000AF919F918F917F916F915F914F913F914C
:100470002F910F900FBE0F901F9018951F920F9203
:100480000FB60F9211242F933F934F935F936F9367
:100490007F938F939F93AF93BF93EF93FF93E091DD
:1004A0006A00F0916B000995FF91EF91BF91AF91B8
:1004B0009F918F917F916F915F914F913F912F917C
:1004C0000F900FBE0F901F9018951F920F920FB6AE
:1004D0000F9211242F933F934F935F936F937F93CA
:1004E0008F939F93AF93BF93EF93FF93E0916C0033
:1004F000F0916D000995FF91EF91BF91AF919F91A0
:100500008F917F916F915F914F913F912F910F90BC
:100510000FBE0F901F9018959CE090B991B19E7FEF
:1005200091B991B19D7F91B9882311F0880F82B95B
:1005300086B7806486BF86B7846086BF089586B715
:10054000806286BF86B7806886BF06B607FEFDCF8D
:1005500081B1887F883011F480E0089581E00895AA
:1005600086B7806286BF86B7806886BF06B607FEFC
:10057000FDCF81B1887F803111F480E0089582E061
:100580000895880F83B983B18E7F83B986B78F7D35
:1005900086BF86B7806886BF06B607FEFDCF81B1ED
:1005A000887F883111F480E0089583E00895880FF2
:1005B00083B983B1816083B986B78F7D86BF86B7E3
:1005C000806886BF06B607FEFDCF81B1887F803484
:1005D00011F480E0089584E0089583B986B78068B7
:1005E00086BF06B607FEFDCF81B1887F883211F441
:1005F00080E0089585E00895FC0196B7906896BF65
:1006000006B607FEFDCF91B1987F903521F483B1F6
:10061000808380E0089586E0089586B7806186BF74
:0C06200086B7806886BF0895F894FFCF6D
:00000001FF
