:100000000C942A000C9430010C9457010C947E013E
:100010000C9447000C9447000C9447000C94470044
:100020000C9447000C9447000C94A5010C944700D5
:100030000C9447000C9447000C9447000C94470024
:100040000C9465000C9447000C9447000C944700F6
:100050000C94470011241FBECFE5D8E0DEBFCDBF12
:1000600010E0A0E6B0E0ECE9F3E002C005900D92EC
:10007000A036B107D9F720E0A0E6B0E001C01D929C
:10008000AC36B207E1F70E9449000C94CC010C9405
:10009000000060E083E00E9457002FEF87EA91E6BE
:1000A000215080409040E1F700C00000F2CFCF9394
:1000B000DF93C82FD62F41E00E948C006D2F8C2F2C
:1000C0000E94FC00DF91CF9108951F920F920FB60E
:1000D0000F9211242F933F934F935F936F937F93CE
:1000E0008F939F93AF93BF93EF93FF93E091600043
:1000F000F09161000995FF91EF91BF91AF919F91B0
:100100008F917F916F915F914F913F912F910F90C0
:100110000FBE0F901F9018954130A1F5813089F0E6
:1001200028F08230C9F0833011F108952AB381E0BC
:1001300090E002C0880F991F6A95E2F7822B8ABB74
:10014000089527B381E090E002C0880F991F6A9557
:10015000E2F7822B87BB089524B381E090E002C0D0
:10016000880F991F6A95E2F7822B84BB089521B30B
:1001700081E090E002C0880F991F6A95E2F7822B18
:1001800081BB0895411137C0813091F028F0823051
:10019000D9F0833029F108952AB381E090E002C0BC
:1001A000880F991F6A95E2F7809582238ABB08958C
:1001B00027B381E090E002C0880F991F6A95E2F7AB
:1001C0008095822387BB089524B381E090E002C02C
:1001D000880F991F6A95E2F78095822384BB089562
:1001E00021B381E090E002C0880F991F6A95E2F781
:1001F0008095822381BB0895813089F028F0823078
:10020000C9F0833011F108952BB381E090E002C072
:10021000880F991F6A95E2F782278BBB089528B350
:1002200081E090E002C0880F991F6A95E2F782276B
:1002300088BB089525B381E090E002C0880F991F24
:100240006A95E2F7822785BB089522B381E090E0AA
:1002500002C0880F991F6A95E2F7822782BB089532
:100260001F920F920FB60F9211242F933F934F932B
:100270005F936F937F938F939F93AF93BF93EF930E
:10028000FF93E0916200F09163000995FF91EF9177
:10029000BF91AF919F918F917F916F915F914F919E
:1002A0003F912F910F900FBE0F901F9018951F92A6
:1002B0000F920FB60F9211242F933F934F935F939A
:1002C0006F937F938F939F93AF93BF93EF93FF931E
:1002D000E0916400F09165000995FF91EF91BF9165
:1002E000AF919F918F917F916F915F914F913F91CE
:1002F0002F910F900FBE0F901F9018951F920F9285
:100300000FB60F9211242F933F934F935F936F93E8
:100310007F938F939F93AF93BF93EF93FF93E0915E
:100320006600F09167000995FF91EF91BF91AF9141
:100330009F918F917F916F915F914F913F912F91FD
:100340000F900FBE0F901F9018951F920F920FB62F
:100350000F9211242F933F934F935F936F937F934B
:100360008F939F93AF93BF93EF93FF93E0916A00B6
:10037000F0916B000995FF91EF91BF91AF919F9123
:100380008F917F916F915F914F913F912F910F903E
:0C0390000FBE0F901F901895F894FFCF3F
:00000001FF
