:100000000C942A000C9416030C943D030C94640386
:100010000C9447000C9447000C9427040C94470060
:100020000C9447000C9447000C94CF030C944700A9
:100030000C9447000C9447000C9447000C94470024
:100040000C94FF010C9447000C9447000C9447005B
:100050000C94470011241FBECFE5D8E0DEBFCDBF12
:1000600010E0A0E6B0E0EAE5FCE002C005900D92E9
:10007000A036B107D9F720E0A0E6B0E001C01D929C
:10008000A337B207E1F70E946D000C942B060C9485
:100090000000809160008F5F80936000813031F4B8
:1000A0000E941F0480E00E940C040895823051F4E5
:1000B0000E941904909364008093630081E00E9481
:1000C0000C040895833041F40E9419049093620057
:1000D0008093610010926000089560EF80E00E94BC
:1000E00006036FE081E00E9406030E94330140E0B6
:1000F00066E083E00E9426020E94F60381E00E94EF
:100100000C040E948B030E941C0489E490E00E946E
:100110002204609163007091640080E090E00E948E
:10012000EF046B017C01609161007091620080E0DE
:1001300090E00E94EF049B01AC01C701B6010E9450
:100140004E0420E030E048EC52E40E947D050E941D
:10015000C004C62F2091610030916200220F331F2E
:10016000220F331F40E050E060E472E48FE090E043
:100170000E940C0669017A0162E383E00E948F030A
:1001800060E080E00E94F7016C2F70E080E090E07A
:100190000E946C0161E080E00E94F701C701B60196
:1001A0007727882799270E946C01B3CF0F931F935D
:1001B000CF93DF9300D000D0CDB7DEB7082F84E017
:1001C000898385E08A8386E08B8387E08C8310E0D7
:1001D00014C0402F50E0012E02C0559547950A9457
:1001E000E2F74170E1E0F0E0EC0FFD1FE10FF11DDF
:1001F000608180E00E9496021F5F143050F30F90E0
:100200000F900F900F90DF91CF911F910F91089554
:1002100041E062E081E00E9496028FE39FE1019756
:10022000F1F700C0000040E062E081E00E94960229
:100230000895CF93C82F40E061E081E00E949602CC
:1002400040E060E081E00E9496028C2F82958F70E2
:100250000E94D6000E9408018C2F0E94D6000E94A6
:100260000801CF9108952FEF83EF91E02150804056
:100270009040E1F700C0000082E00E94D6000E949A
:10028000080182E00E94D6000E94080188E00E94D6
:10029000D6000E9408018CE00E94190181E00E94B2
:1002A00019010895CF93C82F41E061E081E00E94D9
:1002B000960240E060E081E00E9496028C2F8295D9
:1002C0008F700E94D6000E9408018C2F0E94D600D9
:1002D0000E940801CF9108956F927F928F929F9212
:1002E000AF92BF92CF92DF92EF92FF920F931F9344
:1002F000CF93DF93CDB7DEB7962E872E782E692E5B
:10030000CDB6DEB6262F372F482F592FA12C09C086
:10031000CA01B9012AE030E040E050E00E94EA055D
:10032000A394211531054105510591F7EA2CF12CD3
:10033000C701880F991F880F991F2DB73EB7281B3B
:10034000390B0FB6F8943EBF0FBE2DBF0DB71EB7C9
:100350000F5F1F4FB12C1BC0692D782D872D962D57
:100360002AE030E040E050E00E94EA05EB2DF0E0AA
:10037000EE0FFF1FEE0FFF1FE00FF11F6083718371
:1003800082839383922E832E742E652EB394BA1497
:1003900018F3A11011C014C0F701EB19F10931973E
:1003A000EE0FFF1FEE0FFF1FE00FF11F8081805D3A
:1003B0000E945201B39401C0B12CBA1468F303C077
:1003C00080E30E9452010FB6F894DEBE0FBECDBE90
:1003D000DF91CF911F910F91FF90EF90DF90CF9021
:1003E000BF90AF909F908F907F906F90089590E412
:1003F000699F800D112480680E94190108951F9241
:100400000F920FB60F9211242F933F934F935F9348
:100410006F937F938F939F93AF93BF93EF93FF93CC
:10042000E0916500F09166000995FF91EF91BF9111
:10043000AF919F918F917F916F915F914F913F917C
:100440002F910F900FBE0F901F9018954130A1F57E
:10045000813089F028F08230C9F0833011F108959D
:100460002AB381E090E002C0880F991F6A95E2F7F5
:10047000822B8ABB089527B381E090E002C0880FE9
:10048000991F6A95E2F7822B87BB089524B381E018
:1004900090E002C0880F991F6A95E2F7822B84BB17
:1004A000089521B381E090E002C0880F991F6A95FA
:1004B000E2F7822B81BB0895411137C0813091F062
:1004C00028F08230D9F0833029F108952AB381E0F1
:1004D00090E002C0880F991F6A95E2F78095822309
:1004E0008ABB089527B381E090E002C0880F991F6E
:1004F0006A95E2F78095822387BB089524B381E053
:1005000090E002C0880F991F6A95E2F780958223D8
:1005100084BB089521B381E090E002C0880F991F49
:100520006A95E2F78095822381BB08954130A1F559
:10053000813089F028F08230C9F0833011F10895BC
:100540002BB381E090E002C0880F991F6A95E2F713
:10055000822B8BBB089528B381E090E002C0880F06
:10056000991F6A95E2F7822B88BB089525B381E035
:1005700090E002C0880F991F6A95E2F7822B85BB35
:10058000089522B381E090E002C0880F991F6A9518
:10059000E2F7822B82BB0895411137C0813091F080
:1005A00028F08230D9F0833029F108952BB381E00F
:1005B00090E002C0880F991F6A95E2F78095822328
:1005C0008BBB089528B381E090E002C0880F991F8B
:1005D0006A95E2F78095822388BB089525B381E070
:1005E00090E002C0880F991F6A95E2F780958223F8
:1005F00085BB089522B381E090E002C0880F991F67
:100600006A95E2F78095822382BB0895813041F09C
:1006100028F0823039F0833039F008956ABB0895AC
:1006200067BB089564BB089561BB08951F920F9244
:100630000FB60F9211242F933F934F935F936F93B5
:100640007F938F939F93AF93BF93EF93FF93E0912B
:100650006700F09168000995FF91EF91BF91AF910C
:100660009F918F917F916F915F914F913F912F91CA
:100670000F900FBE0F901F9018951F920F920FB6FC
:100680000F9211242F933F934F935F936F937F9318
:100690008F939F93AF93BF93EF93FF93E091690084
:1006A000F0916A000995FF91EF91BF91AF919F91F1
:1006B0008F917F916F915F914F913F912F910F900B
:1006C0000FBE0F901F9018951F920F920FB60F92AA
:1006D00011242F933F934F935F936F937F938F9347
:1006E0009F93AF93BF93EF93FF93E0916B00F091D3
:1006F0006C000995FF91EF91BF91AF919F918F9100
:100700007F916F915F914F913F912F910F900FBE0D
:100710000F901F9018958FB780688FBF089593B77B
:10072000987F93BF93B7936093BF8230E9F0833093
:10073000A9F583B7806483BF83B7886083BF83B71D
:10074000806283BF83B78F7E83BF70E080E090E0DC
:100750000E94F10423E333E343E250E40E947D0569
:100760000E94C0046CBF089583B7806483BF83B7C1
:10077000877F83BF83B7806283BF83B78F7E83BF4A
:1007800070E080E090E00E94F10423E333E343E271
:1007900050E40E947D050E94C0046CBF08951F9222
:1007A0000F920FB60F9211242F933F934F935F93A5
:1007B0006F937F938F939F93AF93BF93EF93FF9329
:1007C000E0916F00F09170000995FF91EF91BF915A
:1007D000AF919F918F917F916F915F914F913F91D9
:1007E0002F910F900FBE0F901F9018958FB58E7F91
:1007F0008FBD8FB58D7F8FBD8EB5877F8EBD8EB53A
:100800008F7E8EBD8EB5887F8EBD8EB583608EBD8A
:1008100089B7806289BF0895882319F0813029F053
:1008200008958EB58F7B8EBD08958EB580648EBD84
:10083000089586B597B5089517BC16BC08951DBCDC
:100840001CBC0895909372008093710008951F92CC
:100850000F920FB60F9211242F933F934F935F93F4
:100860006F937F938F939F93AF93BF93EF93FF9378
:10087000E0917100F09172000995FF91EF91BF91A5
:10088000AF919F918F917F916F915F914F913F9128
:100890002F910F900FBE0F901F9018950E94620429
:1008A0000C9443050E943C0558F00E94350540F029
:1008B00029F45F3F29F00C942C0551110C94770515
:1008C0000C9432050E94540568F39923B1F3552323
:1008D00091F3951B550BBB27AA2762177307840753
:1008E00038F09F5F5F4F220F331F441FAA1FA9F3E9
:1008F00035D00E2E3AF0E0E832D091505040E695D7
:10090000001CCAF72BD0FE2F29D0660F771F881F37
:10091000BB1F261737074807AB07B0E809F0BB0B2A
:10092000802DBF01FF2793585F4F3AF09E3F51053E
:1009300078F00C942C050C9477055F3FE4F3983E17
:10094000D4F3869577956795B795F7959F5FC9F727
:10095000880F911D9695879597F90895E1E0660FA8
:10096000771F881FBB1F621773078407BA0720F021
:10097000621B730B840BBA0BEE1F88F7E09508958A
:100980000E945C0588F09F5798F0B92F9927B751BE
:10099000B0F0E1F0660F771F881F991F1AF0BA9523
:1009A000C9F714C0B13091F00E947605B1E0089506
:1009B0000C947605672F782F8827B85F39F0B93FF8
:1009C000CCF3869577956795B395D9F73EF49095D6
:1009D0008095709561957F4F8F4F9F4F0895E89454
:1009E00009C097FB3EF490958095709561957F4F77
:1009F0008F4F9F4F9923A9F0F92F96E9BB27939525
:100A0000F695879577956795B795F111F8CFFAF434
:100A1000BB0F11F460FF1BC06F5F7F4F8F4F9F4F65
:100A200016C0882311F096E911C0772321F09EE8C3
:100A3000872F762F05C0662371F096E8862F70E029
:100A400060E02AF09A95660F771F881FDAF7880F03
:100A50009695879597F9089597F99F6780E870E0D4
:100A600060E008959FEF80EC089500240A94161624
:100A7000170618060906089500240A94121613068C
:100A8000140605060895092E0394000C11F488231A
:100A900052F0BB0F40F4BF2B11F460FF04C06F5F36
:100AA0007F4F8F4F9F4F089557FD9058440F551F0C
:100AB00059F05F3F71F04795880F97FB991F61F0E0
:100AC0009F3F79F087950895121613061406551F57
:100AD000F2CF4695F1DF08C0161617061806991FC3
:100AE000F1CF86957105610508940895E894BB27B8
:100AF00066277727CB0197F908950E9490050C94FB
:100B000043050E94350538F00E943C0520F09523EE
:100B100011F00C942C050C94320511240C947705DB
:100B20000E94540570F3959FC1F3950F50E0551F37
:100B3000629FF001729FBB27F00DB11D639FAA2732
:100B4000F00DB11DAA1F649F6627B00DA11D661F81
:100B5000829F2227B00DA11D621F739FB00DA11DA2
:100B6000621F839FA00D611D221F749F3327A00D5C
:100B7000611D231F849F600D211D822F762F6A2FF8
:100B800011249F5750409AF0F1F088234AF0EE0F5D
:100B9000FF1FBB1F661F771F881F91505040A9F78A
:100BA0009E3F510580F00C942C050C9477055F3F17
:100BB000E4F3983ED4F3869577956795B795F795C6
:100BC000E7959F5FC1F7FE2B880F911D969587953E
:100BD00097F90895A1E21A2EAA1BBB1BFD010DC0B7
:100BE000AA1FBB1FEE1FFF1FA217B307E407F507DD
:100BF00020F0A21BB30BE40BF50B661F771F881FB9
:100C0000991F1A9469F760957095809590959B014E
:100C1000AC01BD01CF010895052E97FB1EF4009491
:100C20000E94230657FD07D00E94EA0507FC03D067
:100C30004EF40C94230650954095309521953F4FE6
:100C40004F4F5F4F089590958095709561957F4FB8
:0A0C50008F4F9F4F0895F894FFCFD7
:00000001FF
