:100000000C942A000C94A5010C94CC010C94F301DF
:100010000C9447000C9447000C9447000C94470044
:100020000C9447000C9447000C945A020C9447001F
:100030000C9447000C9447000C9447000C94470024
:100040000C949E000C9447000C9447000C944700BD
:100050000C94470011241FBECFE5D8E0DEBFCDBF12
:1000600010E0A0E6B0E0EAE5F7E002C005900D92EE
:10007000A036B107D9F720E0A0E6B0E001C01D929C
:10008000AC36B207E1F70E9449000C94AB030C9424
:1000900000000E94590084E60E9473002AEA36EEAE
:1000A00086E991E02150304080409040D9F700002F
:1000B000F2CF41E063E082E00E94C50041E064E0ED
:1000C00082E00E94C50041E065E082E00E94C50038
:1000D00041E066E082E00E94C50041E063E081E02B
:1000E0000E94C5000895CF93C82F40E063E082E0EE
:1000F0000E94350140E064E082E00E94350140E06A
:1001000065E082E00E94350140E066E082E00E9406
:1001100035016C2F83E00E941A0241E063E082E027
:100120000E94350141E065E082E00E94350141E036
:1001300063E081E00E943501CF9108951F920F92F4
:100140000FB60F9211242F933F934F935F936F93AA
:100150007F938F939F93AF93BF93EF93FF93E09120
:100160006000F09161000995FF91EF91BF91AF910F
:100170009F918F917F916F915F914F913F912F91BF
:100180000F900FBE0F901F9018954130A1F5813050
:1001900089F028F08230C9F0833011F108952AB334
:1001A00081E090E002C0880F991F6A95E2F7822BE8
:1001B0008ABB089527B381E090E002C0880F991FA1
:1001C0006A95E2F7822B87BB089524B381E090E023
:1001D00002C0880F991F6A95E2F7822B84BB0895AD
:1001E00021B381E090E002C0880F991F6A95E2F781
:1001F000822B81BB0895411137C0813091F028F0E6
:100200008230D9F0833029F108952AB381E090E05B
:1002100002C0880F991F6A95E2F7809582238ABBF6
:10022000089527B381E090E002C0880F991F6A9576
:10023000E2F78095822387BB089524B381E090E0A4
:1002400002C0880F991F6A95E2F78095822384BBCC
:10025000089521B381E090E002C0880F991F6A954C
:10026000E2F78095822381BB08954130A1F581306A
:1002700089F028F08230C9F0833011F108952BB352
:1002800081E090E002C0880F991F6A95E2F7822B07
:100290008BBB089528B381E090E002C0880F991FBE
:1002A0006A95E2F7822B88BB089525B381E090E040
:1002B00002C0880F991F6A95E2F7822B85BB0895CB
:1002C00022B381E090E002C0880F991F6A95E2F79F
:1002D000822B82BB0895411137C0813091F028F004
:1002E0008230D9F0833029F108952BB381E090E07A
:1002F00002C0880F991F6A95E2F7809582238BBB15
:10030000089528B381E090E002C0880F991F6A9594
:10031000E2F78095822388BB089525B381E090E0C1
:1003200002C0880F991F6A95E2F78095822385BBEA
:10033000089522B381E090E002C0880F991F6A956A
:10034000E2F78095822382BB08951F920F920FB629
:100350000F9211242F933F934F935F936F937F934B
:100360008F939F93AF93BF93EF93FF93E0916200BE
:10037000F09163000995FF91EF91BF91AF919F912B
:100380008F917F916F915F914F913F912F910F903E
:100390000FBE0F901F9018951F920F920FB60F92DD
:1003A00011242F933F934F935F936F937F938F937A
:1003B0009F93AF93BF93EF93FF93E0916400F0910D
:1003C00065000995FF91EF91BF91AF919F918F913A
:1003D0007F916F915F914F913F912F910F900FBE41
:1003E0000F901F9018951F920F920FB60F92112425
:1003F0002F933F934F935F936F937F938F939F932D
:10040000AF93BF93EF93FF93E0916600F091670085
:100410000995FF91EF91BF91AF919F918F917F913E
:100420006F915F914F913F912F910F900FBE0F9061
:100430001F90189593B7987F93BF93B7936093BF1E
:100440008230E9F08330A9F583B7806483BF83B736
:10045000886083BF83B7806283BF83B78F7E83BF8B
:1004600070E080E090E00E94B20223E333E343E2D5
:1004700050E40E9416030E9481026CBF089583B766
:10048000806483BF83B7877F83BF83B7806283BF66
:1004900083B78F7E83BF70E080E090E00E94B2025D
:1004A00023E333E343E250E40E9416030E948102F7
:1004B0006CBF08951F920F920FB60F9211242F93C5
:1004C0003F934F935F936F937F938F939F93AF93DC
:1004D000BF93EF93FF93E0916A00F0916B00099551
:1004E000FF91EF91BF91AF919F918F917F916F910C
:1004F0005F914F913F912F910F900FBE0F901F90E2
:1005000018950E94F50288F09F5798F0B92F992707
:10051000B751B0F0E1F0660F771F881F991F1AF0EE
:10052000BA95C9F714C0B13091F00E940F03B1E041
:1005300008950C940F03672F782F8827B85F39F040
:10054000B93FCCF3869577956795B395D9F73EF487
:1005500090958095709561957F4F8F4F9F4F08952F
:10056000E89409C097FB3EF490958095709561954D
:100570007F4F8F4F9F4F9923A9F0F92F96E9BB2703
:100580009395F695879577956795B795F111F8CF7F
:10059000FAF4BB0F11F460FF1BC06F5F7F4F8F4FEA
:1005A0009F4F16C0882311F096E911C0772321F0E0
:1005B0009EE8872F762F05C0662371F096E8862F78
:1005C00070E060E02AF09A95660F771F881FDAF7CF
:1005D000880F9695879597F9089557FD9058440F81
:1005E000551F59F05F3F71F04795880F97FB991F92
:1005F00061F09F3F79F0879508951216130614064F
:10060000551FF2CF4695F1DF08C0161617061806DB
:10061000991FF1CF86957105610508940895E894B6
:10062000BB2766277727CB0197F908950E942903F6
:100630000C949A030E948C0338F00E94930320F0DC
:10064000952311F00C9483030C94890311240C94CA
:1006500010030E94ED0270F3959FC1F3950F50E0D7
:10066000551F629FF001729FBB27F00DB11D639F64
:10067000AA27F00DB11DAA1F649F6627B00DA11D0A
:10068000661F829F2227B00DA11D621F739FB00DB0
:10069000A11D621F839FA00D611D221F749F332720
:1006A000A00D611D231F849F600D211D822F762FB9
:1006B0006A2F11249F5750409AF0F1F088234AF096
:1006C000EE0FFF1FBB1F661F771F881F9150504002
:1006D000A9F79E3F510580F00C9483030C941003FE
:1006E0005F3FE4F3983ED4F3869577956795B79589
:1006F000F795E7959F5FC1F7FE2B880F911D9695A3
:10070000879597F9089597F99F6780E870E060E012
:1007100008959FEF80EC089500240A94161617069A
:1007200018060906089500240A94121613061406E2
:1007300005060895092E0394000C11F4882352F045
:10074000BB0F40F4BF2B11F460FF04C06F5F7F4FFD
:0A0750008F4F9F4F0895F894FFCFDC
:00000001FF
